:01000000FF00
:01000100FFFF
:01000200FFFE
:01000300FFFD
:01000400FFFC
:01000500FFFB
:01000600FFFA
:01000700FFF9
:01000800FFF8
:01000900FFF7
:01000A00FFF6
:01000B00FFF5
:01000C00FFF4
:01000D00FFF3
:01000E00FFF2
:01000F00FFF1
:01001000FFF0
:01001100FFEF
:01001200FFEE
:01001300FFED
:01001400FFEC
:01001500FFEB
:01001600FFEA
:01001700FFE9
:01001800FFE8
:01001900FFE7
:01001A00FFE6
:01001B00FFE5
:01001C00FFE4
:01001D00FFE3
:01001E00FFE2
:01001F00FFE1
:01002000FFE0
:01002100FFDF
:01002200FFDE
:01002300FFDD
:01002400FFDC
:01002500FFDB
:01002600FFDA
:01002700FFD9
:01002800FFD8
:01002900FFD7
:01002A00FFD6
:01002B00FFD5
:01002C00FFD4
:01002D00FFD3
:01002E00FFD2
:01002F00FFD1
:01003000FFD0
:01003100FFCF
:01003200FFCE
:01003300FFCD
:01003400FFCC
:01003500FFCB
:01003600FFCA
:01003700FFC9
:01003800FFC8
:01003900FFC7
:01003A00FFC6
:01003B00FFC5
:01003C00FFC4
:01003D00FFC3
:01003E00FFC2
:01003F00FFC1
:01004000FFC0
:01004100FFBF
:01004200FFBE
:01004300FFBD
:01004400FFBC
:01004500FFBB
:01004600FFBA
:01004700FFB9
:01004800FFB8
:01004900FFB7
:01004A00FFB6
:01004B00FFB5
:01004C00FFB4
:01004D00FFB3
:01004E00FFB2
:01004F00FFB1
:01005000FFB0
:01005100FFAF
:01005200FFAE
:01005300FFAD
:01005400FFAC
:01005500FFAB
:01005600FFAA
:01005700FFA9
:01005800FFA8
:01005900FFA7
:01005A00FFA6
:01005B00FFA5
:01005C00FFA4
:01005D00FFA3
:01005E00FFA2
:01005F00FFA1
:01006000FFA0
:01006100FF9F
:01006200FF9E
:01006300FF9D
:01006400FF9C
:01006500FF9B
:01006600FE9B
:01006700FE9A
:01006800FE99
:01006900FE98
:01006A00FA9B
:01006B00F4A0
:01006C00F3A0
:01006D00F2A0
:01006E00F1A0
:01006F00F69A
:01007000DEB1
:01007100A4EA
:01007200800D
:010073007715
:010074006D1E
:010075006C1E
:010076006029
:010077005236
:010078004245
:010079003056
:01007A002263
:01007B00176D
:01007C000083
:01007D000082
:01007E000081
:01007F000080
:01008000007F
:01008100007E
:01008200007D
:01008300007C
:010084001764
:010085002258
:010086003049
:010087004236
:010088005225
:010089006016
:01008A006C09
:01008B006E06
:01008C0080F3
:01008D0082F0
:01008E00A4CD
:01008F00DE92
:01009000F679
:01009100F17D
:01009200F27B
:01009300F379
:01009400F477
:01009500FA70
:01009600FE6B
:01009700FE6A
:01009800FE69
:01009900FE68
:01009A00FF66
:01009B00FF65
:01009C00FF64
:01009D00FF63
:01009E00FF62
:01009F00FF61
:0100A000FF60
:0100A100FF5F
:0100A200FF5E
:0100A300FF5D
:0100A400FF5C
:0100A500FF5B
:0100A600FF5A
:0100A700FF59
:0100A800FF58
:0100A900FF57
:0100AA00FF56
:0100AB00FF55
:0100AC00FF54
:0100AD00FF53
:0100AE00FF52
:0100AF00FF51
:0100B000FF50
:0100B100FF4F
:0100B200FF4E
:0100B300FF4D
:0100B400FF4C
:0100B500FF4B
:0100B600FF4A
:0100B700FF49
:0100B800FF48
:0100B900FF47
:0100BA00FF46
:0100BB00FF45
:0100BC00FF44
:0100BD00FF43
:0100BE00FF42
:0100BF00FF41
:0100C000FF40
:0100C100FF3F
:0100C200FF3E
:0100C300FF3D
:0100C400FF3C
:0100C500FF3B
:0100C600FF3A
:0100C700FF39
:0100C800FF38
:0100C900FF37
:0100CA00FF36
:0100CB00FF35
:0100CC00FF34
:0100CD00FF33
:0100CE00FF32
:0100CF00FF31
:0100D000FF30
:0100D100FF2F
:0100D200FF2E
:0100D300FF2D
:0100D400FF2C
:0100D500FF2B
:0100D600FF2A
:0100D700FF29
:0100D800FF28
:0100D900FF27
:0100DA00FF26
:0100DB00FF25
:0100DC00FF24
:0100DD00FF23
:0100DE00FF22
:0100DF00FF21
:0100E000FF20
:0100E100FF1F
:0100E200FF1E
:0100E300FF1D
:0100E400FF1C
:0100E500FF1B
:0100E600FF1A
:0100E700FF19
:0100E800FF18
:0100E900FF17
:0100EA00FF16
:0100EB00FF15
:0100EC00FF14
:0100ED00FF13
:0100EE00FF12
:0100EF00FF11
:0100F000FF10
:0100F100FF0F
:0100F200FF0E
:0100F300FF0D
:0100F400FF0C
:0100F500FF0B
:0100F600FF0A
:0100F700FF09
:0100F800FF08
:0100F900FF07
:0100FA00FF06
:0100FB00FF05
:0100FC00FF04
:0100FD00FF03
:0100FE00FF02
:0100FF00FF01
:01010000FFFF
:01010100FFFE
:01010200FFFD
:01010300FFFC
:01010400FFFB
:01010500FFFA
:01010600FFF9
:01010700FFF8
:01010800FFF7
:01010900FFF6
:01010A00FFF5
:01010B00FFF4
:01010C00FFF3
:01010D00FFF2
:01010E00FFF1
:01010F00FFF0
:01011000FFEF
:01011100FFEE
:01011200FFED
:01011300FFEC
:01011400FFEB
:01011500FFEA
:01011600FFE9
:01011700FFE8
:01011800FFE7
:01011900FFE6
:01011A00FFE5
:01011B00FFE4
:01011C00FFE3
:01011D00FFE2
:01011E00FFE1
:01011F00FFE0
:01012000FFDF
:01012100FFDE
:01012200FFDD
:01012300FFDC
:01012400FFDB
:01012500FFDA
:01012600FFD9
:01012700FFD8
:01012800FFD7
:01012900FFD6
:01012A00FFD5
:01012B00FFD4
:01012C00FFD3
:01012D00FFD2
:01012E00FFD1
:01012F00FFD0
:01013000FFCF
:01013100FFCE
:01013200FFCD
:01013300FFCC
:01013400FFCB
:01013500FFCA
:01013600FFC9
:01013700FFC8
:01013800FFC7
:01013900FFC6
:01013A00FFC5
:01013B00FFC4
:01013C00FFC3
:01013D00FFC2
:01013E00FFC1
:01013F00FFC0
:01014000FFBF
:01014100FFBE
:01014200FFBD
:01014300FFBC
:01014400FFBB
:01014500FFBA
:01014600FFB9
:01014700FFB8
:01014800FFB7
:01014900FFB6
:01014A00FFB5
:01014B00FFB4
:01014C00FFB3
:01014D00FFB2
:01014E00FFB1
:01014F00FFB0
:01015000FFAF
:01015100FFAE
:01015200FFAD
:01015300FFAC
:01015400FFAB
:01015500FFAA
:01015600FFA9
:01015700FFA8
:01015800FFA7
:01015900FFA6
:01015A00FFA5
:01015B00FFA4
:01015C00FFA3
:01015D00FFA2
:01015E00FFA1
:01015F00FFA0
:01016000FF9F
:01016100FF9E
:01016200FF9D
:01016300FF9C
:01016400FF9B
:01016500F4A5
:01016600EFA9
:01016700EAAD
:01016800EBAB
:01016900DDB8
:01016A009CF8
:01016B00840F
:01016C00761C
:01016D00622F
:01016E004C44
:01016F003857
:010170002A64
:01017100206D
:010172001973
:010173001774
:010174001575
:010175001574
:010176001375
:010177001077
:010178000086
:010179000085
:01017A000084
:01017B000083
:01017C000082
:01017D000081
:01017E000080
:01017F00007F
:01018000007E
:01018100007D
:01018200007C
:01018300007B
:01018400007A
:010185000079
:010186000078
:010187000077
:010188001066
:010189001362
:01018A00155F
:01018B00155E
:01018C001959
:01018D001958
:01018E002050
:01018F002A45
:010190003836
:010191004F1E
:010192006804
:0101930076F5
:0101940084E6
:010195009CCD
:01019600DD8B
:01019700EB7C
:01019800EA7C
:01019900EF76
:01019A00F470
:01019B00FF64
:01019C00FF63
:01019D00FF62
:01019E00FF61
:01019F00FF60
:0101A000FF5F
:0101A100FF5E
:0101A200FF5D
:0101A300FF5C
:0101A400FF5B
:0101A500FF5A
:0101A600FF59
:0101A700FF58
:0101A800FF57
:0101A900FF56
:0101AA00FF55
:0101AB00FF54
:0101AC00FF53
:0101AD00FF52
:0101AE00FF51
:0101AF00FF50
:0101B000FF4F
:0101B100FF4E
:0101B200FF4D
:0101B300FF4C
:0101B400FF4B
:0101B500FF4A
:0101B600FF49
:0101B700FF48
:0101B800FF47
:0101B900FF46
:0101BA00FF45
:0101BB00FF44
:0101BC00FF43
:0101BD00FF42
:0101BE00FF41
:0101BF00FF40
:0101C000FF3F
:0101C100FF3E
:0101C200FF3D
:0101C300FF3C
:0101C400FF3B
:0101C500FF3A
:0101C600FF39
:0101C700FF38
:0101C800FF37
:0101C900FF36
:0101CA00FF35
:0101CB00FF34
:0101CC00FF33
:0101CD00FF32
:0101CE00FF31
:0101CF00FF30
:0101D000FF2F
:0101D100FF2E
:0101D200FF2D
:0101D300FF2C
:0101D400FF2B
:0101D500FF2A
:0101D600FF29
:0101D700FF28
:0101D800FF27
:0101D900FF26
:0101DA00FF25
:0101DB00FF24
:0101DC00FF23
:0101DD00FF22
:0101DE00FF21
:0101DF00FF20
:0101E000FF1F
:0101E100FF1E
:0101E200FF1D
:0101E300FF1C
:0101E400FF1B
:0101E500FF1A
:0101E600FF19
:0101E700FF18
:0101E800FF17
:0101E900FF16
:0101EA00FF15
:0101EB00FF14
:0101EC00FF13
:0101ED00FF12
:0101EE00FF11
:0101EF00FF10
:0101F000FF0F
:0101F100FF0E
:0101F200FF0D
:0101F300FF0C
:0101F400FF0B
:0101F500FF0A
:0101F600FF09
:0101F700FF08
:0101F800FF07
:0101F900FF06
:0101FA00FF05
:0101FB00FF04
:0101FC00FF03
:0101FD00FF02
:0101FE00FF01
:0101FF00FF00
:01020000FFFE
:01020100FFFD
:01020200FFFC
:01020300FFFB
:01020400FFFA
:01020500FFF9
:01020600FFF8
:01020700FFF7
:01020800FFF6
:01020900FFF5
:01020A00FFF4
:01020B00FFF3
:01020C00FFF2
:01020D00FFF1
:01020E00FFF0
:01020F00FFEF
:01021000FFEE
:01021100FFED
:01021200FFEC
:01021300FFEB
:01021400FFEA
:01021500FFE9
:01021600FFE8
:01021700FFE7
:01021800FFE6
:01021900FFE5
:01021A00FFE4
:01021B00FFE3
:01021C00FFE2
:01021D00FFE1
:01021E00FFE0
:01021F00FFDF
:01022000FFDE
:01022100FFDD
:01022200FFDC
:01022300FFDB
:01022400FFDA
:01022500FFD9
:01022600FFD8
:01022700FFD7
:01022800FFD6
:01022900FFD5
:01022A00FFD4
:01022B00FFD3
:01022C00FFD2
:01022D00FFD1
:01022E00FFD0
:01022F00FFCF
:01023000FFCE
:01023100FFCD
:01023200FFCC
:01023300FFCB
:01023400FFCA
:01023500FFC9
:01023600FFC8
:01023700FFC7
:01023800FFC6
:01023900FFC5
:01023A00FFC4
:01023B00FFC3
:01023C00FFC2
:01023D00FFC1
:01023E00FFC0
:01023F00FFBF
:01024000FFBE
:01024100FFBD
:01024200FFBC
:01024300FFBB
:01024400FFBA
:01024500FFB9
:01024600FFB8
:01024700FFB7
:01024800FFB6
:01024900FFB5
:01024A00FFB4
:01024B00FFB3
:01024C00FFB2
:01024D00FFB1
:01024E00FFB0
:01024F00FFAF
:01025000FFAE
:01025100FFAD
:01025200FFAC
:01025300FFAB
:01025400FFAA
:01025500FFA9
:01025600FFA8
:01025700FFA7
:01025800FFA6
:01025900FFA5
:01025A00FFA4
:01025B00FFA3
:01025C00FFA2
:01025D00FFA1
:01025E00FFA0
:01025F00FF9F
:01026000FBA2
:01026100F0AC
:01026200E7B4
:01026300E0BA
:01026400D5C4
:01026500A3F5
:010266008413
:010267006D29
:010268005342
:010269003C58
:01026A00246F
:01026B001C76
:01026C00167B
:01026D000090
:01026E00008F
:01026F00008E
:01027000008D
:01027100008C
:01027200008B
:01027300008A
:010274000089
:010275000088
:010276000087
:010277000086
:010278000085
:010279000084
:01027A000083
:01027B000082
:01027C000081
:01027D000080
:01027E00007F
:01027F00007E
:01028000007D
:01028100007C
:01028200007B
:01028300007A
:010284000079
:010285000078
:010286000077
:010287000076
:010288000075
:010289000074
:01028A000073
:01028B000072
:01028C000071
:01028D000070
:01028E00006F
:01028F00006E
:01029000006D
:01029100006C
:01029200115A
:010293001654
:010294001C4D
:010295002444
:010296003C2B
:010297005313
:010298006DF8
:0102990084E0
:01029A00A3C0
:01029B00D58D
:01029C00E081
:01029D00E779
:01029E00F06F
:01029F00FB63
:0102A000FF5E
:0102A100FF5D
:0102A200FF5C
:0102A300FF5B
:0102A400FF5A
:0102A500FF59
:0102A600FF58
:0102A700FF57
:0102A800FF56
:0102A900FF55
:0102AA00FF54
:0102AB00FF53
:0102AC00FF52
:0102AD00FF51
:0102AE00FF50
:0102AF00FF4F
:0102B000FF4E
:0102B100FF4D
:0102B200FF4C
:0102B300FF4B
:0102B400FF4A
:0102B500FF49
:0102B600FF48
:0102B700FF47
:0102B800FF46
:0102B900FF45
:0102BA00FF44
:0102BB00FF43
:0102BC00FF42
:0102BD00FF41
:0102BE00FF40
:0102BF00FF3F
:0102C000FF3E
:0102C100FF3D
:0102C200FF3C
:0102C300FF3B
:0102C400FF3A
:0102C500FF39
:0102C600FF38
:0102C700FF37
:0102C800FF36
:0102C900FF35
:0102CA00FF34
:0102CB00FF33
:0102CC00FF32
:0102CD00FF31
:0102CE00FF30
:0102CF00FF2F
:0102D000FF2E
:0102D100FF2D
:0102D200FF2C
:0102D300FF2B
:0102D400FF2A
:0102D500FF29
:0102D600FF28
:0102D700FF27
:0102D800FF26
:0102D900FF25
:0102DA00FF24
:0102DB00FF23
:0102DC00FF22
:0102DD00FF21
:0102DE00FF20
:0102DF00FF1F
:0102E000FF1E
:0102E100FF1D
:0102E200FF1C
:0102E300FF1B
:0102E400FF1A
:0102E500FF19
:0102E600FF18
:0102E700FF17
:0102E800FF16
:0102E900FF15
:0102EA00FF14
:0102EB00FF13
:0102EC00FF12
:0102ED00FF11
:0102EE00FF10
:0102EF00FF0F
:0102F000FF0E
:0102F100FF0D
:0102F200FF0C
:0102F300FF0B
:0102F400FF0A
:0102F500FF09
:0102F600FF08
:0102F700FF07
:0102F800FF06
:0102F900FF05
:0102FA00FF04
:0102FB00FF03
:0102FC00FF02
:0102FD00FF01
:0102FE00FF00
:0102FF00FFFF
:01030000FFFD
:01030100FFFC
:01030200FFFB
:01030300FFFA
:01030400FFF9
:01030500FFF8
:01030600FFF7
:01030700FFF6
:01030800FFF5
:01030900FFF4
:01030A00FFF3
:01030B00FFF2
:01030C00FFF1
:01030D00FFF0
:01030E00FFEF
:01030F00FFEE
:01031000FFED
:01031100FFEC
:01031200FFEB
:01031300FFEA
:01031400FFE9
:01031500FFE8
:01031600FFE7
:01031700FFE6
:01031800FFE5
:01031900FFE4
:01031A00FFE3
:01031B00FFE2
:01031C00FFE1
:01031D00FFE0
:01031E00FFDF
:01031F00FFDE
:01032000FFDD
:01032100FFDC
:01032200FFDB
:01032300FFDA
:01032400FFD9
:01032500FFD8
:01032600FFD7
:01032700FFD6
:01032800FFD5
:01032900FFD4
:01032A00FFD3
:01032B00FFD2
:01032C00FFD1
:01032D00FFD0
:01032E00FFCF
:01032F00FFCE
:01033000FFCD
:01033100FFCC
:01033200FFCB
:01033300FFCA
:01033400FFC9
:01033500FFC8
:01033600FFC7
:01033700FFC6
:01033800FFC5
:01033900FFC4
:01033A00FFC3
:01033B00FFC2
:01033C00FFC1
:01033D00FFC0
:01033E00FFBF
:01033F00FFBE
:01034000FFBD
:01034100FFBC
:01034200FFBB
:01034300FFBA
:01034400FFB9
:01034500FFB8
:01034600FFB7
:01034700FFB6
:01034800FFB5
:01034900FFB4
:01034A00FFB3
:01034B00FFB2
:01034C00FFB1
:01034D00FFB0
:01034E00FFAF
:01034F00FFAE
:01035000FFAD
:01035100FFAC
:01035200FFAB
:01035300FFAA
:01035400FFA9
:01035500FFA8
:01035600FFA7
:01035700FFA6
:01035800FFA5
:01035900FFA4
:01035A00FFA3
:01035B00FFA2
:01035C00FFA1
:01035D00EEB1
:01035E00E2BC
:01035F00DDC0
:01036000C8D4
:010361009EFD
:010362007E1C
:010363005742
:010364004C4C
:010365003166
:010366002076
:010367001382
:010368000094
:010369000093
:01036A000092
:01036B000091
:01036C000090
:01036D00008F
:01036E00008E
:01036F00008D
:01037000008C
:01037100008B
:01037200008A
:010373000089
:010374000088
:010375000087
:010376000086
:010377000085
:010378000084
:010379000083
:01037A000082
:01037B000081
:01037C000080
:01037D00007F
:01037E00007E
:01037F00007D
:01038000007C
:01038100007B
:01038200007A
:010383000079
:010384000078
:010385000077
:010386000076
:010387000075
:010388000074
:010389000073
:01038A000072
:01038B000071
:01038C000070
:01038D00006F
:01038E00006E
:01038F00006D
:01039000006C
:01039100006B
:01039200006A
:010393000069
:010394000068
:010395000067
:010396000066
:010397000065
:010398001351
:010399002043
:01039A003131
:01039B004C15
:01039C005709
:01039D007EE1
:01039E009EC0
:01039F00C895
:0103A000DD7F
:0103A100E279
:0103A200EE6C
:0103A300FF5A
:0103A400FF59
:0103A500FF58
:0103A600FF57
:0103A700FF56
:0103A800FF55
:0103A900FF54
:0103AA00FF53
:0103AB00FF52
:0103AC00FF51
:0103AD00FF50
:0103AE00FF4F
:0103AF00FF4E
:0103B000FF4D
:0103B100FF4C
:0103B200FF4B
:0103B300FF4A
:0103B400FF49
:0103B500FF48
:0103B600FF47
:0103B700FF46
:0103B800FF45
:0103B900FF44
:0103BA00FF43
:0103BB00FF42
:0103BC00FF41
:0103BD00FF40
:0103BE00FF3F
:0103BF00FF3E
:0103C000FF3D
:0103C100FF3C
:0103C200FF3B
:0103C300FF3A
:0103C400FF39
:0103C500FF38
:0103C600FF37
:0103C700FF36
:0103C800FF35
:0103C900FF34
:0103CA00FF33
:0103CB00FF32
:0103CC00FF31
:0103CD00FF30
:0103CE00FF2F
:0103CF00FF2E
:0103D000FF2D
:0103D100FF2C
:0103D200FF2B
:0103D300FF2A
:0103D400FF29
:0103D500FF28
:0103D600FF27
:0103D700FF26
:0103D800FF25
:0103D900FF24
:0103DA00FF23
:0103DB00FF22
:0103DC00FF21
:0103DD00FF20
:0103DE00FF1F
:0103DF00FF1E
:0103E000FF1D
:0103E100FF1C
:0103E200FF1B
:0103E300FF1A
:0103E400FF19
:0103E500FF18
:0103E600FF17
:0103E700FF16
:0103E800FF15
:0103E900FF14
:0103EA00FF13
:0103EB00FF12
:0103EC00FF11
:0103ED00FF10
:0103EE00FF0F
:0103EF00FF0E
:0103F000FF0D
:0103F100FF0C
:0103F200FF0B
:0103F300FF0A
:0103F400FF09
:0103F500FF08
:0103F600FF07
:0103F700FF06
:0103F800FF05
:0103F900FF04
:0103FA00FF03
:0103FB00FF02
:0103FC00FF01
:0103FD00FF00
:0103FE00FFFF
:0103FF00FFFE
:01040000FFFC
:01040100FFFB
:01040200FFFA
:01040300FFF9
:01040400FFF8
:01040500FFF7
:01040600FFF6
:01040700FFF5
:01040800FFF4
:01040900FFF3
:01040A00FFF2
:01040B00FFF1
:01040C00FFF0
:01040D00FFEF
:01040E00FFEE
:01040F00FFED
:01041000FFEC
:01041100FFEB
:01041200FFEA
:01041300FFE9
:01041400FFE8
:01041500FFE7
:01041600FFE6
:01041700FFE5
:01041800FFE4
:01041900FFE3
:01041A00FFE2
:01041B00FFE1
:01041C00FFE0
:01041D00FFDF
:01041E00FFDE
:01041F00FFDD
:01042000FFDC
:01042100FFDB
:01042200FFDA
:01042300FFD9
:01042400FFD8
:01042500FFD7
:01042600FFD6
:01042700FFD5
:01042800FFD4
:01042900FFD3
:01042A00FFD2
:01042B00FFD1
:01042C00FFD0
:01042D00FFCF
:01042E00FFCE
:01042F00FFCD
:01043000FFCC
:01043100FFCB
:01043200FFCA
:01043300FFC9
:01043400FFC8
:01043500FFC7
:01043600FFC6
:01043700FFC5
:01043800FFC4
:01043900FFC3
:01043A00FFC2
:01043B00FFC1
:01043C00FFC0
:01043D00FFBF
:01043E00FFBE
:01043F00FFBD
:01044000FFBC
:01044100FFBB
:01044200FFBA
:01044300FFB9
:01044400FFB8
:01044500FFB7
:01044600FFB6
:01044700FFB5
:01044800FFB4
:01044900FFB3
:01044A00FFB2
:01044B00FFB1
:01044C00FFB0
:01044D00FFAF
:01044E00FFAE
:01044F00FFAD
:01045000FFAC
:01045100FFAB
:01045200FFAA
:01045300FFA9
:01045400FFA8
:01045500FFA7
:01045600FFA6
:01045700FFA5
:01045800FFA4
:01045900FBA7
:01045A00E7BA
:01045B00DAC6
:01045C00CCD3
:01045D009C02
:01045E007F1E
:01045F006D2F
:01046000514A
:010461003367
:010462001C7D
:010463000098
:010464000097
:010465000096
:010466000095
:010467000094
:010468000093
:010469000092
:01046A000091
:01046B000090
:01046C00008F
:01046D00008E
:01046E00008D
:01046F00008C
:01047000008B
:01047100008A
:010472000089
:010473000088
:010474000087
:010475000086
:010476000085
:010477000084
:010478000083
:010479000082
:01047A000081
:01047B000080
:01047C00007F
:01047D00007E
:01047E00007D
:01047F00007C
:01048000007B
:01048100007A
:010482000079
:010483000078
:010484000077
:010485000076
:010486000075
:010487000074
:010488000073
:010489000072
:01048A000071
:01048B000070
:01048C00006F
:01048D00006E
:01048E00006D
:01048F00006C
:01049000006B
:01049100006A
:010492000069
:010493000068
:010494000067
:010495000066
:010496000065
:010497000064
:010498000063
:010499000062
:01049A000061
:01049B000060
:01049C00005F
:01049D001C42
:01049E00332A
:01049F00510B
:0104A0006DEE
:0104A1007FDB
:0104A2009CBD
:0104A300CC8C
:0104A400DA7D
:0104A500E76F
:0104A600FB5A
:0104A700FF55
:0104A800FF54
:0104A900FF53
:0104AA00FF52
:0104AB00FF51
:0104AC00FF50
:0104AD00FF4F
:0104AE00FF4E
:0104AF00FF4D
:0104B000FF4C
:0104B100FF4B
:0104B200FF4A
:0104B300FF49
:0104B400FF48
:0104B500FF47
:0104B600FF46
:0104B700FF45
:0104B800FF44
:0104B900FF43
:0104BA00FF42
:0104BB00FF41
:0104BC00FF40
:0104BD00FF3F
:0104BE00FF3E
:0104BF00FF3D
:0104C000FF3C
:0104C100FF3B
:0104C200FF3A
:0104C300FF39
:0104C400FF38
:0104C500FF37
:0104C600FF36
:0104C700FF35
:0104C800FF34
:0104C900FF33
:0104CA00FF32
:0104CB00FF31
:0104CC00FF30
:0104CD00FF2F
:0104CE00FF2E
:0104CF00FF2D
:0104D000FF2C
:0104D100FF2B
:0104D200FF2A
:0104D300FF29
:0104D400FF28
:0104D500FF27
:0104D600FF26
:0104D700FF25
:0104D800FF24
:0104D900FF23
:0104DA00FF22
:0104DB00FF21
:0104DC00FF20
:0104DD00FF1F
:0104DE00FF1E
:0104DF00FF1D
:0104E000FF1C
:0104E100FF1B
:0104E200FF1A
:0104E300FF19
:0104E400FF18
:0104E500FF17
:0104E600FF16
:0104E700FF15
:0104E800FF14
:0104E900FF13
:0104EA00FF12
:0104EB00FF11
:0104EC00FF10
:0104ED00FF0F
:0104EE00FF0E
:0104EF00FF0D
:0104F000FF0C
:0104F100FF0B
:0104F200FF0A
:0104F300FF09
:0104F400FF08
:0104F500FF07
:0104F600FF06
:0104F700FF05
:0104F800FF04
:0104F900FF03
:0104FA00FF02
:0104FB00FF01
:0104FC00FF00
:0104FD00FFFF
:0104FE00FFFE
:0104FF00FFFD
:01050000FFFB
:01050100FFFA
:01050200FFF9
:01050300FFF8
:01050400FFF7
:01050500FFF6
:01050600FFF5
:01050700FFF4
:01050800FFF3
:01050900FFF2
:01050A00FFF1
:01050B00FFF0
:01050C00FFEF
:01050D00FFEE
:01050E00FFED
:01050F00FFEC
:01051000FFEB
:01051100FFEA
:01051200FFE9
:01051300FFE8
:01051400FFE7
:01051500FFE6
:01051600FFE5
:01051700FFE4
:01051800FFE3
:01051900FFE2
:01051A00FFE1
:01051B00FFE0
:01051C00FFDF
:01051D00FFDE
:01051E00FFDD
:01051F00FFDC
:01052000FFDB
:01052100FFDA
:01052200FFD9
:01052300FFD8
:01052400FFD7
:01052500FFD6
:01052600FFD5
:01052700FFD4
:01052800FFD3
:01052900FFD2
:01052A00FFD1
:01052B00FFD0
:01052C00FFCF
:01052D00FFCE
:01052E00FFCD
:01052F00FFCC
:01053000FFCB
:01053100FFCA
:01053200FFC9
:01053300FFC8
:01053400FFC7
:01053500FFC6
:01053600FFC5
:01053700FFC4
:01053800FFC3
:01053900FFC2
:01053A00FFC1
:01053B00FFC0
:01053C00FFBF
:01053D00FFBE
:01053E00FFBD
:01053F00FFBC
:01054000FFBB
:01054100FFBA
:01054200FFB9
:01054300FFB8
:01054400FFB7
:01054500FFB6
:01054600FFB5
:01054700FFB4
:01054800FFB3
:01054900FFB2
:01054A00FFB1
:01054B00FFB0
:01054C00FFAF
:01054D00FFAE
:01054E00FFAD
:01054F00FFAC
:01055000FFAB
:01055100FFAA
:01055200FFA9
:01055300FFA8
:01055400FFA7
:01055500FFA6
:01055600FBA9
:01055700EBB8
:01055800DAC8
:01055900CCD5
:01055A00910F
:01055B00722D
:01055C005B43
:01055D00316C
:01055E001884
:01055F00009B
:01056000009A
:010561000099
:010562000098
:010563000097
:010564000096
:010565000095
:010566000094
:010567000093
:010568000092
:010569000091
:01056A000090
:01056B00008F
:01056C00008E
:01056D00008D
:01056E00008C
:01056F00008B
:01057000008A
:010571000089
:010572000088
:010573000087
:010574000086
:010575000085
:010576000084
:010577000083
:010578000082
:010579000081
:01057A000080
:01057B00007F
:01057C00007E
:01057D00007D
:01057E00007C
:01057F00007B
:01058000007A
:010581000079
:010582000078
:010583000077
:010584000076
:010585000075
:010586000074
:010587000073
:010588000072
:010589000071
:01058A000070
:01058B00006F
:01058C00006E
:01058D00006D
:01058E00006C
:01058F00006B
:01059000006A
:010591000069
:010592000068
:010593000067
:010594000066
:010595000065
:010596000064
:010597000063
:010598000062
:010599000061
:01059A000060
:01059B00005F
:01059C00005E
:01059D00005D
:01059E00005C
:01059F00005B
:0105A000005A
:0105A1001841
:0105A2003127
:0105A3005BFC
:0105A40072E4
:0105A50091C4
:0105A600CC88
:0105A700DA79
:0105A800EB67
:0105A900FB56
:0105AA00FF51
:0105AB00FF50
:0105AC00FF4F
:0105AD00FF4E
:0105AE00FF4D
:0105AF00FF4C
:0105B000FF4B
:0105B100FF4A
:0105B200FF49
:0105B300FF48
:0105B400FF47
:0105B500FF46
:0105B600FF45
:0105B700FF44
:0105B800FF43
:0105B900FF42
:0105BA00FF41
:0105BB00FF40
:0105BC00FF3F
:0105BD00FF3E
:0105BE00FF3D
:0105BF00FF3C
:0105C000FF3B
:0105C100FF3A
:0105C200FF39
:0105C300FF38
:0105C400FF37
:0105C500FF36
:0105C600FF35
:0105C700FF34
:0105C800FF33
:0105C900FF32
:0105CA00FF31
:0105CB00FF30
:0105CC00FF2F
:0105CD00FF2E
:0105CE00FF2D
:0105CF00FF2C
:0105D000FF2B
:0105D100FF2A
:0105D200FF29
:0105D300FF28
:0105D400FF27
:0105D500FF26
:0105D600FF25
:0105D700FF24
:0105D800FF23
:0105D900FF22
:0105DA00FF21
:0105DB00FF20
:0105DC00FF1F
:0105DD00FF1E
:0105DE00FF1D
:0105DF00FF1C
:0105E000FF1B
:0105E100FF1A
:0105E200FF19
:0105E300FF18
:0105E400FF17
:0105E500FF16
:0105E600FF15
:0105E700FF14
:0105E800FF13
:0105E900FF12
:0105EA00FF11
:0105EB00FF10
:0105EC00FF0F
:0105ED00FF0E
:0105EE00FF0D
:0105EF00FF0C
:0105F000FF0B
:0105F100FF0A
:0105F200FF09
:0105F300FF08
:0105F400FF07
:0105F500FF06
:0105F600FF05
:0105F700FF04
:0105F800FF03
:0105F900FF02
:0105FA00FF01
:0105FB00FF00
:0105FC00FFFF
:0105FD00FFFE
:0105FE00FFFD
:0105FF00FFFC
:01060000FFFA
:01060100FFF9
:01060200FFF8
:01060300FFF7
:01060400FFF6
:01060500FFF5
:01060600FFF4
:01060700FFF3
:01060800FFF2
:01060900FFF1
:01060A00FFF0
:01060B00FFEF
:01060C00FFEE
:01060D00FFED
:01060E00FFEC
:01060F00FFEB
:01061000FFEA
:01061100FFE9
:01061200FFE8
:01061300FFE7
:01061400FFE6
:01061500FFE5
:01061600FFE4
:01061700FFE3
:01061800FFE2
:01061900FFE1
:01061A00FFE0
:01061B00FFDF
:01061C00FFDE
:01061D00FFDD
:01061E00FFDC
:01061F00FFDB
:01062000FFDA
:01062100FFD9
:01062200FFD8
:01062300FFD7
:01062400FFD6
:01062500FFD5
:01062600FFD4
:01062700FFD3
:01062800FFD2
:01062900FFD1
:01062A00FFD0
:01062B00FFCF
:01062C00FFCE
:01062D00FFCD
:01062E00FFCC
:01062F00FFCB
:01063000FFCA
:01063100FFC9
:01063200FFC8
:01063300FFC7
:01063400FFC6
:01063500FFC5
:01063600FFC4
:01063700FFC3
:01063800FFC2
:01063900FFC1
:01063A00FFC0
:01063B00FFBF
:01063C00FFBE
:01063D00FFBD
:01063E00FFBC
:01063F00FFBB
:01064000FFBA
:01064100FFB9
:01064200FFB8
:01064300FFB7
:01064400FFB6
:01064500FFB5
:01064600FFB4
:01064700FFB3
:01064800FFB2
:01064900FFB1
:01064A00FFB0
:01064B00FFAF
:01064C00FFAE
:01064D00FFAD
:01064E00FFAC
:01064F00FFAB
:01065000FFAA
:01065100FFA9
:01065200FEA9
:01065300EFB7
:01065400E9BC
:01065500E3C1
:01065600CBD8
:01065700950D
:01065800643D
:01065900564A
:01065A002679
:01065B00009E
:01065C00009D
:01065D00009C
:01065E00009B
:01065F00009A
:010660000099
:010661000098
:010662000097
:010663000096
:010664000095
:010665000094
:010666000093
:010667000092
:010668000091
:010669000090
:01066A00008F
:01066B00008E
:01066C00008D
:01066D00008C
:01066E00008B
:01066F00008A
:010670000089
:010671000088
:010672000087
:010673000086
:010674000085
:010675000084
:010676000083
:010677000082
:010678000081
:010679000080
:01067A00007F
:01067B00007E
:01067C00007D
:01067D00007C
:01067E00007B
:01067F00007A
:010680000079
:010681000078
:010682000077
:010683000076
:010684000075
:010685000074
:010686000073
:010687000072
:010688000071
:010689000070
:01068A00006F
:01068B00006E
:01068C00006D
:01068D00006C
:01068E00006B
:01068F00006A
:010690000069
:010691000068
:010692000067
:010693000066
:010694000065
:010695000064
:010696000063
:010697000062
:010698000061
:010699000060
:01069A00005F
:01069B00005E
:01069C00005D
:01069D00005C
:01069E00005B
:01069F00005A
:0106A0000059
:0106A1000058
:0106A2000057
:0106A3000056
:0106A4000055
:0106A500262E
:0106A60056FD
:0106A70064EE
:0106A80095BC
:0106A900CB85
:0106AA00E36C
:0106AB00E965
:0106AC00F25B
:0106AD00FE4E
:0106AE00FF4C
:0106AF00FF4B
:0106B000FF4A
:0106B100FF49
:0106B200FF48
:0106B300FF47
:0106B400FF46
:0106B500FF45
:0106B600FF44
:0106B700FF43
:0106B800FF42
:0106B900FF41
:0106BA00FF40
:0106BB00FF3F
:0106BC00FF3E
:0106BD00FF3D
:0106BE00FF3C
:0106BF00FF3B
:0106C000FF3A
:0106C100FF39
:0106C200FF38
:0106C300FF37
:0106C400FF36
:0106C500FF35
:0106C600FF34
:0106C700FF33
:0106C800FF32
:0106C900FF31
:0106CA00FF30
:0106CB00FF2F
:0106CC00FF2E
:0106CD00FF2D
:0106CE00FF2C
:0106CF00FF2B
:0106D000FF2A
:0106D100FF29
:0106D200FF28
:0106D300FF27
:0106D400FF26
:0106D500FF25
:0106D600FF24
:0106D700FF23
:0106D800FF22
:0106D900FF21
:0106DA00FF20
:0106DB00FF1F
:0106DC00FF1E
:0106DD00FF1D
:0106DE00FF1C
:0106DF00FF1B
:0106E000FF1A
:0106E100FF19
:0106E200FF18
:0106E300FF17
:0106E400FF16
:0106E500FF15
:0106E600FF14
:0106E700FF13
:0106E800FF12
:0106E900FF11
:0106EA00FF10
:0106EB00FF0F
:0106EC00FF0E
:0106ED00FF0D
:0106EE00FF0C
:0106EF00FF0B
:0106F000FF0A
:0106F100FF09
:0106F200FF08
:0106F300FF07
:0106F400FF06
:0106F500FF05
:0106F600FF04
:0106F700FF03
:0106F800FF02
:0106F900FF01
:0106FA00FF00
:0106FB00FFFF
:0106FC00FFFE
:0106FD00FFFD
:0106FE00FFFC
:0106FF00FFFB
:01070000FFF9
:01070100FFF8
:01070200FFF7
:01070300FFF6
:01070400FFF5
:01070500FFF4
:01070600FFF3
:01070700FFF2
:01070800FFF1
:01070900FFF0
:01070A00FFEF
:01070B00FFEE
:01070C00FFED
:01070D00FFEC
:01070E00FFEB
:01070F00FFEA
:01071000FFE9
:01071100FFE8
:01071200FFE7
:01071300FFE6
:01071400FFE5
:01071500FFE4
:01071600FFE3
:01071700FFE2
:01071800FFE1
:01071900FFE0
:01071A00FFDF
:01071B00FFDE
:01071C00FFDD
:01071D00FFDC
:01071E00FFDB
:01071F00FFDA
:01072000FFD9
:01072100FFD8
:01072200FFD7
:01072300FFD6
:01072400FFD5
:01072500FFD4
:01072600FFD3
:01072700FFD2
:01072800FFD1
:01072900FFD0
:01072A00FFCF
:01072B00FFCE
:01072C00FFCD
:01072D00FFCC
:01072E00FFCB
:01072F00FFCA
:01073000FFC9
:01073100FFC8
:01073200FFC7
:01073300FFC6
:01073400FFC5
:01073500FFC4
:01073600FFC3
:01073700FFC2
:01073800FFC1
:01073900FFC0
:01073A00FFBF
:01073B00FFBE
:01073C00FFBD
:01073D00FFBC
:01073E00FFBB
:01073F00FFBA
:01074000FFB9
:01074100FFB8
:01074200FFB7
:01074300FFB6
:01074400FFB5
:01074500FFB4
:01074600FFB3
:01074700FFB2
:01074800FFB1
:01074900FFB0
:01074A00FFAF
:01074B00FFAE
:01074C00FFAD
:01074D00FFAC
:01074E00FFAB
:01074F00FFAA
:01075000FDAB
:01075100F4B3
:01075200E7BF
:010753009E07
:010754007F25
:010755006241
:010756004260
:010757001D84
:0107580000A0
:01075900009F
:01075A00009E
:01075B00009D
:01075C00009C
:01075D00009B
:01075E00009A
:01075F000099
:010760000098
:010761000097
:010762000096
:010763000095
:010764000094
:010765000093
:010766000092
:010767000091
:010768000090
:01076900008F
:01076A00008E
:01076B00008D
:01076C00008C
:01076D00008B
:01076E00008A
:01076F000089
:010770000088
:010771000087
:010772000086
:010773000085
:010774000084
:010775000083
:010776000082
:010777000081
:010778000080
:01077900007F
:01077A00007E
:01077B00007D
:01077C00007C
:01077D00007B
:01077E00007A
:01077F000079
:010780000078
:010781000077
:010782000076
:010783000075
:010784000074
:010785000073
:010786000072
:010787000071
:010788000070
:01078900006F
:01078A00006E
:01078B00006D
:01078C00006C
:01078D00006B
:01078E00006A
:01078F000069
:010790000068
:010791000067
:010792000066
:010793000065
:010794000064
:010795000063
:010796000062
:010797000061
:010798000060
:01079900005F
:01079A00005E
:01079B00005D
:01079C00005C
:01079D00005B
:01079E00005A
:01079F000059
:0107A0000058
:0107A1000057
:0107A2000056
:0107A3000055
:0107A4000054
:0107A5000053
:0107A6000052
:0107A7000051
:0107A8001D33
:0107A900420D
:0107AA0061ED
:0107AB0081CC
:0107AC00A8A4
:0107AD00E863
:0107AE00F456
:0107AF00FD4C
:0107B000FF49
:0107B100FF48
:0107B200FF47
:0107B300FF46
:0107B400FF45
:0107B500FF44
:0107B600FF43
:0107B700FF42
:0107B800FF41
:0107B900FF40
:0107BA00FF3F
:0107BB00FF3E
:0107BC00FF3D
:0107BD00FF3C
:0107BE00FF3B
:0107BF00FF3A
:0107C000FF39
:0107C100FF38
:0107C200FF37
:0107C300FF36
:0107C400FF35
:0107C500FF34
:0107C600FF33
:0107C700FF32
:0107C800FF31
:0107C900FF30
:0107CA00FF2F
:0107CB00FF2E
:0107CC00FF2D
:0107CD00FF2C
:0107CE00FF2B
:0107CF00FF2A
:0107D000FF29
:0107D100FF28
:0107D200FF27
:0107D300FF26
:0107D400FF25
:0107D500FF24
:0107D600FF23
:0107D700FF22
:0107D800FF21
:0107D900FF20
:0107DA00FF1F
:0107DB00FF1E
:0107DC00FF1D
:0107DD00FF1C
:0107DE00FF1B
:0107DF00FF1A
:0107E000FF19
:0107E100FF18
:0107E200FF17
:0107E300FF16
:0107E400FF15
:0107E500FF14
:0107E600FF13
:0107E700FF12
:0107E800FF11
:0107E900FF10
:0107EA00FF0F
:0107EB00FF0E
:0107EC00FF0D
:0107ED00FF0C
:0107EE00FF0B
:0107EF00FF0A
:0107F000FF09
:0107F100FF08
:0107F200FF07
:0107F300FF06
:0107F400FF05
:0107F500FF04
:0107F600FF03
:0107F700FF02
:0107F800FF01
:0107F900FF00
:0107FA00FFFF
:0107FB00FFFE
:0107FC00FFFD
:0107FD00FFFC
:0107FE00FFFB
:0107FF00FFFA
:01080000FFF8
:01080100FFF7
:01080200FFF6
:01080300FFF5
:01080400FFF4
:01080500FFF3
:01080600FFF2
:01080700FFF1
:01080800FFF0
:01080900FFEF
:01080A00FFEE
:01080B00FFED
:01080C00FFEC
:01080D00FFEB
:01080E00FFEA
:01080F00FFE9
:01081000FFE8
:01081100FFE7
:01081200FFE6
:01081300FFE5
:01081400FFE4
:01081500FFE3
:01081600FFE2
:01081700FFE1
:01081800FFE0
:01081900FFDF
:01081A00FFDE
:01081B00FFDD
:01081C00FFDC
:01081D00FFDB
:01081E00FFDA
:01081F00FFD9
:01082000FFD8
:01082100FFD7
:01082200FFD6
:01082300FFD5
:01082400FFD4
:01082500FFD3
:01082600FFD2
:01082700FFD1
:01082800FFD0
:01082900FFCF
:01082A00FFCE
:01082B00FFCD
:01082C00FFCC
:01082D00FFCB
:01082E00FFCA
:01082F00FFC9
:01083000FFC8
:01083100FFC7
:01083200FFC6
:01083300FFC5
:01083400FFC4
:01083500FFC3
:01083600FFC2
:01083700FFC1
:01083800FFC0
:01083900FFBF
:01083A00FFBE
:01083B00FFBD
:01083C00FFBC
:01083D00FFBB
:01083E00FFBA
:01083F00FFB9
:01084000FFB8
:01084100FFB7
:01084200FFB6
:01084300FFB5
:01084400FFB4
:01084500FFB3
:01084600FFB2
:01084700FFB1
:01084800FFB0
:01084900FFAF
:01084A00FFAE
:01084B00FFAD
:01084C00FEAD
:01084D00FEAC
:01084E00FDAC
:01084F00FBAD
:01085000E2C5
:01085100980E
:010852005D48
:01085300287C
:0108540000A3
:0108550000A2
:0108560000A1
:0108570000A0
:01085800009F
:01085900009E
:01085A00009D
:01085B00009C
:01085C00009B
:01085D00009A
:01085E000099
:01085F000098
:010860000097
:010861000096
:010862000095
:010863000094
:010864000093
:010865000092
:010866000091
:010867000090
:01086800008F
:01086900008E
:01086A00008D
:01086B00008C
:01086C00008B
:01086D00008A
:01086E000089
:01086F000088
:010870000087
:010871000086
:010872000085
:010873000084
:010874000083
:010875000082
:010876000081
:010877000080
:01087800007F
:01087900007E
:01087A00007D
:01087B00007C
:01087C00007B
:01087D00007A
:01087E000079
:01087F000078
:010880000077
:010881000076
:010882000075
:010883000074
:010884000073
:010885000072
:010886000071
:010887000070
:01088800006F
:01088900006E
:01088A00006D
:01088B00006C
:01088C00006B
:01088D00006A
:01088E000069
:01088F000068
:010890000067
:010891000066
:010892000065
:010893000064
:010894000063
:010895000062
:010896000061
:010897000060
:01089800005F
:01089900005E
:01089A00005D
:01089B00005C
:01089C00005B
:01089D00005A
:01089E000059
:01089F000058
:0108A0000057
:0108A1000056
:0108A2000055
:0108A3000054
:0108A4000053
:0108A5000052
:0108A6000051
:0108A7000050
:0108A800004F
:0108A900004E
:0108AA00004D
:0108AB00004C
:0108AC002625
:0108AD005CEE
:0108AE0098B1
:0108AF00E266
:0108B000FB4C
:0108B100FD49
:0108B200FE47
:0108B300FE46
:0108B400FF44
:0108B500FF43
:0108B600FF42
:0108B700FF41
:0108B800FF40
:0108B900FF3F
:0108BA00FF3E
:0108BB00FF3D
:0108BC00FF3C
:0108BD00FF3B
:0108BE00FF3A
:0108BF00FF39
:0108C000FF38
:0108C100FF37
:0108C200FF36
:0108C300FF35
:0108C400FF34
:0108C500FF33
:0108C600FF32
:0108C700FF31
:0108C800FF30
:0108C900FF2F
:0108CA00FF2E
:0108CB00FF2D
:0108CC00FF2C
:0108CD00FF2B
:0108CE00FF2A
:0108CF00FF29
:0108D000FF28
:0108D100FF27
:0108D200FF26
:0108D300FF25
:0108D400FF24
:0108D500FF23
:0108D600FF22
:0108D700FF21
:0108D800FF20
:0108D900FF1F
:0108DA00FF1E
:0108DB00FF1D
:0108DC00FF1C
:0108DD00FF1B
:0108DE00FF1A
:0108DF00FF19
:0108E000FF18
:0108E100FF17
:0108E200FF16
:0108E300FF15
:0108E400FF14
:0108E500FF13
:0108E600FF12
:0108E700FF11
:0108E800FF10
:0108E900FF0F
:0108EA00FF0E
:0108EB00FF0D
:0108EC00FF0C
:0108ED00FF0B
:0108EE00FF0A
:0108EF00FF09
:0108F000FF08
:0108F100FF07
:0108F200FF06
:0108F300FF05
:0108F400FF04
:0108F500FF03
:0108F600FF02
:0108F700FF01
:0108F800FF00
:0108F900FFFF
:0108FA00FFFE
:0108FB00FFFD
:0108FC00FFFC
:0108FD00FFFB
:0108FE00FFFA
:0108FF00FFF9
:01090000FFF7
:01090100FFF6
:01090200FFF5
:01090300FFF4
:01090400FFF3
:01090500FFF2
:01090600FFF1
:01090700FFF0
:01090800FFEF
:01090900FFEE
:01090A00FFED
:01090B00FFEC
:01090C00FFEB
:01090D00FFEA
:01090E00FFE9
:01090F00FFE8
:01091000FFE7
:01091100FFE6
:01091200FFE5
:01091300FFE4
:01091400FFE3
:01091500FFE2
:01091600FFE1
:01091700FFE0
:01091800FFDF
:01091900FFDE
:01091A00FFDD
:01091B00FFDC
:01091C00FFDB
:01091D00FFDA
:01091E00FFD9
:01091F00FFD8
:01092000FFD7
:01092100FFD6
:01092200FFD5
:01092300FFD4
:01092400FFD3
:01092500FFD2
:01092600FFD1
:01092700FFD0
:01092800FFCF
:01092900FFCE
:01092A00FFCD
:01092B00FFCC
:01092C00FFCB
:01092D00FFCA
:01092E00FFC9
:01092F00FFC8
:01093000FFC7
:01093100FFC6
:01093200FFC5
:01093300FFC4
:01093400FFC3
:01093500FFC2
:01093600FFC1
:01093700FFC0
:01093800FFBF
:01093900FFBE
:01093A00FFBD
:01093B00FFBC
:01093C00FFBB
:01093D00FFBA
:01093E00FFB9
:01093F00FFB8
:01094000FFB7
:01094100FFB6
:01094200FFB5
:01094300FFB4
:01094400FFB3
:01094500FFB2
:01094600FFB1
:01094700FFB0
:01094800FFAF
:01094900FFAE
:01094A00FFAD
:01094B00FFAC
:01094C00F3B7
:01094D00F0B9
:01094E00D6D2
:01094F008C1B
:01095000386E
:01095100178E
:0109520000A4
:0109530000A3
:0109540000A2
:0109550000A1
:0109560000A0
:01095700009F
:01095800009E
:01095900009D
:01095A00009C
:01095B00009B
:01095C00009A
:01095D000099
:01095E000098
:01095F000097
:010960000096
:010961000095
:010962000094
:010963000093
:010964000092
:010965000091
:010966000090
:01096700008F
:01096800008E
:01096900008D
:01096A00008C
:01096B00008B
:01096C00008A
:01096D000089
:01096E000088
:01096F000087
:010970000086
:010971000085
:010972000084
:010973000083
:010974000082
:010975000081
:010976000080
:01097700007F
:01097800007E
:01097900007D
:01097A00007C
:01097B00007B
:01097C00007A
:01097D001168
:01097E001266
:01097F001265
:010980001264
:010981001263
:010982001163
:010983000073
:010984000072
:010985000071
:010986000070
:01098700006F
:01098800006E
:01098900006D
:01098A00006C
:01098B00006B
:01098C00006A
:01098D000069
:01098E000068
:01098F000067
:010990000066
:010991000065
:010992000064
:010993000063
:010994000062
:010995000061
:010996000060
:01099700005F
:01099800005E
:01099900005D
:01099A00005C
:01099B00005B
:01099C00005A
:01099D000059
:01099E000058
:01099F000057
:0109A0000056
:0109A1000055
:0109A2000054
:0109A3000053
:0109A4000052
:0109A5000051
:0109A6000050
:0109A700004F
:0109A800004E
:0109A900004D
:0109AA00004C
:0109AB00004B
:0109AC00004A
:0109AD000049
:0109AE001731
:0109AF00380F
:0109B0008CBA
:0109B100D66F
:0109B200F054
:0109B300F350
:0109B400FF43
:0109B500FF42
:0109B600FF41
:0109B700FF40
:0109B800FF3F
:0109B900FF3E
:0109BA00FF3D
:0109BB00FF3C
:0109BC00FF3B
:0109BD00FF3A
:0109BE00FF39
:0109BF00FF38
:0109C000FF37
:0109C100FF36
:0109C200FF35
:0109C300FF34
:0109C400FF33
:0109C500FF32
:0109C600FF31
:0109C700FF30
:0109C800FF2F
:0109C900FF2E
:0109CA00FF2D
:0109CB00FF2C
:0109CC00FF2B
:0109CD00FF2A
:0109CE00FF29
:0109CF00FF28
:0109D000FF27
:0109D100FF26
:0109D200FF25
:0109D300FF24
:0109D400FF23
:0109D500FF22
:0109D600FF21
:0109D700FF20
:0109D800FF1F
:0109D900FF1E
:0109DA00FF1D
:0109DB00FF1C
:0109DC00FF1B
:0109DD00FF1A
:0109DE00FF19
:0109DF00FF18
:0109E000FF17
:0109E100FF16
:0109E200FF15
:0109E300FF14
:0109E400FF13
:0109E500FF12
:0109E600FF11
:0109E700FF10
:0109E800FF0F
:0109E900FF0E
:0109EA00FF0D
:0109EB00FF0C
:0109EC00FF0B
:0109ED00FF0A
:0109EE00FF09
:0109EF00FF08
:0109F000FF07
:0109F100FF06
:0109F200FF05
:0109F300FF04
:0109F400FF03
:0109F500FF02
:0109F600FF01
:0109F700FF00
:0109F800FFFF
:0109F900FFFE
:0109FA00FFFD
:0109FB00FFFC
:0109FC00FFFB
:0109FD00FFFA
:0109FE00FFF9
:0109FF00FFF8
:010A0000FFF6
:010A0100FFF5
:010A0200FFF4
:010A0300FFF3
:010A0400FFF2
:010A0500FFF1
:010A0600FFF0
:010A0700FFEF
:010A0800FFEE
:010A0900FFED
:010A0A00FFEC
:010A0B00FFEB
:010A0C00FFEA
:010A0D00FFE9
:010A0E00FFE8
:010A0F00FFE7
:010A1000FFE6
:010A1100FFE5
:010A1200FFE4
:010A1300FFE3
:010A1400FFE2
:010A1500FFE1
:010A1600FFE0
:010A1700FFDF
:010A1800FFDE
:010A1900FFDD
:010A1A00FFDC
:010A1B00FFDB
:010A1C00FFDA
:010A1D00FFD9
:010A1E00FFD8
:010A1F00FFD7
:010A2000FFD6
:010A2100FFD5
:010A2200FFD4
:010A2300FFD3
:010A2400FFD2
:010A2500FFD1
:010A2600FFD0
:010A2700FFCF
:010A2800FFCE
:010A2900FFCD
:010A2A00FFCC
:010A2B00FFCB
:010A2C00FFCA
:010A2D00FFC9
:010A2E00FFC8
:010A2F00FFC7
:010A3000FFC6
:010A3100FFC5
:010A3200FFC4
:010A3300FFC3
:010A3400FFC2
:010A3500FFC1
:010A3600FFC0
:010A3700FFBF
:010A3800FFBE
:010A3900FFBD
:010A3A00FFBC
:010A3B00FFBB
:010A3C00FFBA
:010A3D00FFB9
:010A3E00FFB8
:010A3F00FFB7
:010A4000FFB6
:010A4100FFB5
:010A4200FFB4
:010A4300FFB3
:010A4400FFB2
:010A4500FFB1
:010A4600FFB0
:010A4700FFAF
:010A4800FFAE
:010A4900FDAF
:010A4A00ECBF
:010A4B00DFCB
:010A4C00A207
:010A4D006C3C
:010A4E004265
:010A4F001B8B
:010A500000A5
:010A510000A4
:010A520000A3
:010A530000A2
:010A540000A1
:010A550000A0
:010A5600009F
:010A5700009E
:010A5800009D
:010A5900009C
:010A5A00009B
:010A5B00009A
:010A5C000099
:010A5D000098
:010A5E000097
:010A5F000096
:010A60000095
:010A61000094
:010A62000093
:010A63000092
:010A64000091
:010A65000090
:010A6600008F
:010A6700008E
:010A6800008D
:010A6900008C
:010A6A00008B
:010A6B00008A
:010A6C000089
:010A6D000088
:010A6E000087
:010A6F000086
:010A70000085
:010A71001470
:010A72001A69
:010A73001E64
:010A7400245D
:010A7500324E
:010A76003B44
:010A77003E40
:010A7800433A
:010A79004933
:010A7A004B30
:010A7B005624
:010A7C005623
:010A7D006018
:010A7E006314
:010A7F006214
:010A80006213
:010A81006311
:010A82006013
:010A8300561C
:010A8400561B
:010A85004B25
:010A86004926
:010A8700432B
:010A88003E2F
:010A89003B31
:010A8A003239
:010A8B002446
:010A8C001E4B
:010A8D001A4E
:010A8E001453
:010A8F000066
:010A90000065
:010A91000064
:010A92000063
:010A93000062
:010A94000061
:010A95000060
:010A9600005F
:010A9700005E
:010A9800005D
:010A9900005C
:010A9A00005B
:010A9B00005A
:010A9C000059
:010A9D000058
:010A9E000057
:010A9F000056
:010AA0000055
:010AA1000054
:010AA2000053
:010AA3000052
:010AA4000051
:010AA5000050
:010AA600004F
:010AA700004E
:010AA800004D
:010AA900004C
:010AAA00004B
:010AAB00004A
:010AAC000049
:010AAD000048
:010AAE000047
:010AAF000046
:010AB0001B2A
:010AB1004202
:010AB2006CD7
:010AB300A2A0
:010AB400DF62
:010AB500EC54
:010AB600FD42
:010AB700FF3F
:010AB800FF3E
:010AB900FF3D
:010ABA00FF3C
:010ABB00FF3B
:010ABC00FF3A
:010ABD00FF39
:010ABE00FF38
:010ABF00FF37
:010AC000FF36
:010AC100FF35
:010AC200FF34
:010AC300FF33
:010AC400FF32
:010AC500FF31
:010AC600FF30
:010AC700FF2F
:010AC800FF2E
:010AC900FF2D
:010ACA00FF2C
:010ACB00FF2B
:010ACC00FF2A
:010ACD00FF29
:010ACE00FF28
:010ACF00FF27
:010AD000FF26
:010AD100FF25
:010AD200FF24
:010AD300FF23
:010AD400FF22
:010AD500FF21
:010AD600FF20
:010AD700FF1F
:010AD800FF1E
:010AD900FF1D
:010ADA00FF1C
:010ADB00FF1B
:010ADC00FF1A
:010ADD00FF19
:010ADE00FF18
:010ADF00FF17
:010AE000FF16
:010AE100FF15
:010AE200FF14
:010AE300FF13
:010AE400FF12
:010AE500FF11
:010AE600FF10
:010AE700FF0F
:010AE800FF0E
:010AE900FF0D
:010AEA00FF0C
:010AEB00FF0B
:010AEC00FF0A
:010AED00FF09
:010AEE00FF08
:010AEF00FF07
:010AF000FF06
:010AF100FF05
:010AF200FF04
:010AF300FF03
:010AF400FF02
:010AF500FF01
:010AF600FF00
:010AF700FFFF
:010AF800FFFE
:010AF900FFFD
:010AFA00FFFC
:010AFB00FFFB
:010AFC00FFFA
:010AFD00FFF9
:010AFE00FFF8
:010AFF00FFF7
:010B0000FFF5
:010B0100FFF4
:010B0200FFF3
:010B0300FFF2
:010B0400FFF1
:010B0500FFF0
:010B0600FFEF
:010B0700FFEE
:010B0800FFED
:010B0900FFEC
:010B0A00FFEB
:010B0B00FFEA
:010B0C00FFE9
:010B0D00FFE8
:010B0E00FFE7
:010B0F00FFE6
:010B1000FFE5
:010B1100FFE4
:010B1200FFE3
:010B1300FFE2
:010B1400FFE1
:010B1500FFE0
:010B1600FFDF
:010B1700FFDE
:010B1800FFDD
:010B1900FFDC
:010B1A00FFDB
:010B1B00FFDA
:010B1C00FFD9
:010B1D00FFD8
:010B1E00FFD7
:010B1F00FFD6
:010B2000FFD5
:010B2100FFD4
:010B2200FFD3
:010B2300FFD2
:010B2400FFD1
:010B2500FFD0
:010B2600FFCF
:010B2700FFCE
:010B2800FFCD
:010B2900FFCC
:010B2A00FFCB
:010B2B00FFCA
:010B2C00FFC9
:010B2D00FFC8
:010B2E00FFC7
:010B2F00FFC6
:010B3000FFC5
:010B3100FFC4
:010B3200FFC3
:010B3300FFC2
:010B3400FFC1
:010B3500FFC0
:010B3600FFBF
:010B3700FFBE
:010B3800FFBD
:010B3900FFBC
:010B3A00FFBB
:010B3B00FFBA
:010B3C00FFB9
:010B3D00FFB8
:010B3E00FFB7
:010B3F00FFB6
:010B4000FFB5
:010B4100FFB4
:010B4200FFB3
:010B4300FFB2
:010B4400FFB1
:010B4500FFB0
:010B4600FFAF
:010B4700FCB1
:010B4800F1BB
:010B4900D5D6
:010B4A008F1B
:010B4B006346
:010B4C003276
:010B4D001295
:010B4E0000A6
:010B4F0000A5
:010B500000A4
:010B510000A3
:010B520000A2
:010B530000A1
:010B540000A0
:010B5500009F
:010B5600009E
:010B5700009D
:010B5800009C
:010B5900009B
:010B5A00009A
:010B5B000099
:010B5C000098
:010B5D000097
:010B5E000096
:010B5F000095
:010B60000094
:010B61000093
:010B62000092
:010B63000091
:010B64000090
:010B6500008F
:010B6600008E
:010B6700008D
:010B6800008C
:010B6900008B
:010B6A00008A
:010B6B000089
:010B6C001A6E
:010B6D002D5A
:010B6E003D49
:010B6F004A3B
:010B7000582C
:010B7100641F
:010B72006C16
:010B7300760B
:010B74007F01
:010B75008BF4
:010B760098E6
:010B7700A0DD
:010B7800A4D8
:010B7900A7D4
:010B7A00A8D2
:010B7B00ACCD
:010B7C00B1C7
:010B7D00B6C1
:010B7E00B7BF
:010B7F00B7BE
:010B8000B7BD
:010B8100B7BC
:010B8200B6BC
:010B8300B1C0
:010B8400ACC4
:010B8500A8C7
:010B8600A7C7
:010B8700A4C9
:010B8800A0CC
:010B890098D3
:010B8A008BDF
:010B8B007FEA
:010B8C0076F2
:010B8D006CFB
:010B8E006402
:010B8F00580D
:010B90004A1A
:010B91003D26
:010B92002E34
:010B93001B46
:010B94000060
:010B9500005F
:010B9600005E
:010B9700005D
:010B9800005C
:010B9900005B
:010B9A00005A
:010B9B000059
:010B9C000058
:010B9D000057
:010B9E000056
:010B9F000055
:010BA0000054
:010BA1000053
:010BA2000052
:010BA3000051
:010BA4000050
:010BA500004F
:010BA600004E
:010BA700004D
:010BA800004C
:010BA900004B
:010BAA00004A
:010BAB000049
:010BAC000048
:010BAD000047
:010BAE000046
:010BAF000045
:010BB0000044
:010BB1000043
:010BB2001230
:010BB300320F
:010BB40063DD
:010BB5008FB0
:010BB600D569
:010BB700F14C
:010BB800FC40
:010BB900FF3C
:010BBA00FF3B
:010BBB00FF3A
:010BBC00FF39
:010BBD00FF38
:010BBE00FF37
:010BBF00FF36
:010BC000FF35
:010BC100FF34
:010BC200FF33
:010BC300FF32
:010BC400FF31
:010BC500FF30
:010BC600FF2F
:010BC700FF2E
:010BC800FF2D
:010BC900FF2C
:010BCA00FF2B
:010BCB00FF2A
:010BCC00FF29
:010BCD00FF28
:010BCE00FF27
:010BCF00FF26
:010BD000FF25
:010BD100FF24
:010BD200FF23
:010BD300FF22
:010BD400FF21
:010BD500FF20
:010BD600FF1F
:010BD700FF1E
:010BD800FF1D
:010BD900FF1C
:010BDA00FF1B
:010BDB00FF1A
:010BDC00FF19
:010BDD00FF18
:010BDE00FF17
:010BDF00FF16
:010BE000FF15
:010BE100FF14
:010BE200FF13
:010BE300FF12
:010BE400FF11
:010BE500FF10
:010BE600FF0F
:010BE700FF0E
:010BE800FF0D
:010BE900FF0C
:010BEA00FF0B
:010BEB00FF0A
:010BEC00FF09
:010BED00FF08
:010BEE00FF07
:010BEF00FF06
:010BF000FF05
:010BF100FF04
:010BF200FF03
:010BF300FF02
:010BF400FF01
:010BF500FF00
:010BF600FFFF
:010BF700FFFE
:010BF800FFFD
:010BF900FFFC
:010BFA00FFFB
:010BFB00FFFA
:010BFC00FFF9
:010BFD00FFF8
:010BFE00FFF7
:010BFF00FFF6
:010C0000FFF4
:010C0100FFF3
:010C0200FFF2
:010C0300FFF1
:010C0400FFF0
:010C0500FFEF
:010C0600FFEE
:010C0700FFED
:010C0800FFEC
:010C0900FFEB
:010C0A00FFEA
:010C0B00FFE9
:010C0C00FFE8
:010C0D00FFE7
:010C0E00FFE6
:010C0F00FFE5
:010C1000FFE4
:010C1100FFE3
:010C1200FFE2
:010C1300FFE1
:010C1400FFE0
:010C1500FFDF
:010C1600FFDE
:010C1700FFDD
:010C1800FFDC
:010C1900FFDB
:010C1A00FFDA
:010C1B00FFD9
:010C1C00FFD8
:010C1D00FFD7
:010C1E00FFD6
:010C1F00FFD5
:010C2000FFD4
:010C2100FFD3
:010C2200FFD2
:010C2300FFD1
:010C2400FFD0
:010C2500FFCF
:010C2600FFCE
:010C2700FFCD
:010C2800FFCC
:010C2900FFCB
:010C2A00FFCA
:010C2B00FFC9
:010C2C00FFC8
:010C2D00FFC7
:010C2E00FFC6
:010C2F00FFC5
:010C3000FFC4
:010C3100FFC3
:010C3200FFC2
:010C3300FFC1
:010C3400FFC0
:010C3500FFBF
:010C3600FFBE
:010C3700FFBD
:010C3800FFBC
:010C3900FFBB
:010C3A00FFBA
:010C3B00FFB9
:010C3C00FFB8
:010C3D00FFB7
:010C3E00FFB6
:010C3F00FFB5
:010C4000FFB4
:010C4100FFB3
:010C4200FFB2
:010C4300FFB1
:010C4400FFB0
:010C4500FCB2
:010C4600EDC0
:010C4700CDDF
:010C48009D0E
:010C49006149
:010C4A002980
:010C4B0000A8
:010C4C0000A7
:010C4D0000A6
:010C4E0000A5
:010C4F0000A4
:010C500000A3
:010C510000A2
:010C520000A1
:010C530000A0
:010C5400009F
:010C5500009E
:010C5600009D
:010C5700009C
:010C5800009B
:010C5900009A
:010C5A000099
:010C5B000098
:010C5C000097
:010C5D000096
:010C5E000095
:010C5F000094
:010C60000093
:010C61000092
:010C62000091
:010C63000090
:010C6400008F
:010C6500127C
:010C66001D70
:010C67002765
:010C68003259
:010C6900404A
:010C6A005237
:010C6B006226
:010C6C007116
:010C6D008CFA
:010C6E00A1E4
:010C6F00ABD9
:010C7000B4CF
:010C7100BCC6
:010C7200BFC2
:010C7300C5BB
:010C7400CAB5
:010C7500CDB1
:010C7600D3AA
:010C7700D9A3
:010C7800DBA0
:010C7900DB9F
:010C7A00DA9F
:010C7B00DA9E
:010C7C00DD9A
:010C7D00DD99
:010C7E00DD98
:010C7F00DD97
:010C8000DD96
:010C8100DD95
:010C8200DD94
:010C8300DD93
:010C8400DA95
:010C8500DA94
:010C8600DB92
:010C8700DB91
:010C8800D992
:010C8900D397
:010C8A00CD9C
:010C8B00CA9E
:010C8C00C5A2
:010C8D00BFA7
:010C8E00BCA9
:010C8F00B4B0
:010C9000ABB8
:010C9100A1C1
:010C92008CD5
:010C930072EE
:010C940062FD
:010C9500540A
:010C96003F1E
:010C9700312B
:010C98002734
:010C99001D3D
:010C9A001247
:010C9B000058
:010C9C000057
:010C9D000056
:010C9E000055
:010C9F000054
:010CA0000053
:010CA1000052
:010CA2000051
:010CA3000050
:010CA400004F
:010CA500004E
:010CA600004D
:010CA700004C
:010CA800004B
:010CA900004A
:010CAA000049
:010CAB000048
:010CAC000047
:010CAD000046
:010CAE000045
:010CAF000044
:010CB0000043
:010CB1000042
:010CB2000041
:010CB3000040
:010CB400003F
:010CB5002A14
:010CB60064D9
:010CB7009E9E
:010CB800CD6E
:010CB900ED4D
:010CBA00FC3D
:010CBB00FF39
:010CBC00FF38
:010CBD00FF37
:010CBE00FF36
:010CBF00FF35
:010CC000FF34
:010CC100FF33
:010CC200FF32
:010CC300FF31
:010CC400FF30
:010CC500FF2F
:010CC600FF2E
:010CC700FF2D
:010CC800FF2C
:010CC900FF2B
:010CCA00FF2A
:010CCB00FF29
:010CCC00FF28
:010CCD00FF27
:010CCE00FF26
:010CCF00FF25
:010CD000FF24
:010CD100FF23
:010CD200FF22
:010CD300FF21
:010CD400FF20
:010CD500FF1F
:010CD600FF1E
:010CD700FF1D
:010CD800FF1C
:010CD900FF1B
:010CDA00FF1A
:010CDB00FF19
:010CDC00FF18
:010CDD00FF17
:010CDE00FF16
:010CDF00FF15
:010CE000FF14
:010CE100FF13
:010CE200FF12
:010CE300FF11
:010CE400FF10
:010CE500FF0F
:010CE600FF0E
:010CE700FF0D
:010CE800FF0C
:010CE900FF0B
:010CEA00FF0A
:010CEB00FF09
:010CEC00FF08
:010CED00FF07
:010CEE00FF06
:010CEF00FF05
:010CF000FF04
:010CF100FF03
:010CF200FF02
:010CF300FF01
:010CF400FF00
:010CF500FFFF
:010CF600FFFE
:010CF700FFFD
:010CF800FFFC
:010CF900FFFB
:010CFA00FFFA
:010CFB00FFF9
:010CFC00FFF8
:010CFD00FFF7
:010CFE00FFF6
:010CFF00FFF5
:010D0000FFF3
:010D0100FFF2
:010D0200FFF1
:010D0300FFF0
:010D0400FFEF
:010D0500FFEE
:010D0600FFED
:010D0700FFEC
:010D0800FFEB
:010D0900FFEA
:010D0A00FFE9
:010D0B00FFE8
:010D0C00FFE7
:010D0D00FFE6
:010D0E00FFE5
:010D0F00FFE4
:010D1000FFE3
:010D1100FFE2
:010D1200FFE1
:010D1300FFE0
:010D1400FFDF
:010D1500FFDE
:010D1600FFDD
:010D1700FFDC
:010D1800FFDB
:010D1900FFDA
:010D1A00FFD9
:010D1B00FFD8
:010D1C00FFD7
:010D1D00FFD6
:010D1E00FFD5
:010D1F00FFD4
:010D2000FFD3
:010D2100FFD2
:010D2200FFD1
:010D2300FFD0
:010D2400FFCF
:010D2500FFCE
:010D2600FFCD
:010D2700FFCC
:010D2800FFCB
:010D2900FFCA
:010D2A00FFC9
:010D2B00FFC8
:010D2C00FFC7
:010D2D00FFC6
:010D2E00FFC5
:010D2F00FFC4
:010D3000FFC3
:010D3100FFC2
:010D3200FFC1
:010D3300FFC0
:010D3400FFBF
:010D3500FFBE
:010D3600FFBD
:010D3700FFBC
:010D3800FFBB
:010D3900FFBA
:010D3A00FFB9
:010D3B00FFB8
:010D3C00FFB7
:010D3D00FFB6
:010D3E00FFB5
:010D3F00FFB4
:010D4000FFB3
:010D4100FFB2
:010D4200FFB1
:010D4300FFB0
:010D4400EBC3
:010D4500CDE0
:010D46009C10
:010D47006348
:010D4800307A
:010D490000A9
:010D4A0000A8
:010D4B0000A7
:010D4C0000A6
:010D4D0000A5
:010D4E0000A4
:010D4F0000A3
:010D500000A2
:010D510000A1
:010D520000A0
:010D5300009F
:010D5400009E
:010D5500009D
:010D5600009C
:010D5700009B
:010D5800009A
:010D59000099
:010D5A000098
:010D5B000097
:010D5C000096
:010D5D000095
:010D5E000094
:010D5F000093
:010D60000092
:010D61000091
:010D6200157B
:010D63002966
:010D6400404E
:010D65005A33
:010D66006F1D
:010D67008209
:010D680095F5
:010D6900A7E2
:010D6A00B7D1
:010D6B00C2C5
:010D6C00C9BD
:010D6D00D4B1
:010D6E00DCA8
:010D6F00DEA5
:010D7000E0A2
:010D7100E29F
:010D7200E29E
:010D7300E29D
:010D7400E29C
:010D7500E19C
:010D7600E19B
:010D7700E299
:010D7800E298
:010D7900E297
:010D7A00E197
:010D7B00E196
:010D7C00E096
:010D7D00E095
:010D7E00E094
:010D7F00E093
:010D8000E092
:010D8100E091
:010D8200E090
:010D8300E08F
:010D8400E18D
:010D8500E18C
:010D8600E28A
:010D8700E289
:010D8800E288
:010D8900E188
:010D8A00E187
:010D8B00E285
:010D8C00E284
:010D8D00E283
:010D8E00E282
:010D8F00E083
:010D9000DE84
:010D9100DC85
:010D9200D48C
:010D9300C996
:010D9400C29C
:010D9500B7A6
:010D9600A5B7
:010D970094C7
:010D980082D8
:010D99006FEA
:010D9A005AFE
:010D9B004017
:010D9C00292D
:010D9D001540
:010D9E000054
:010D9F000053
:010DA0000052
:010DA1000051
:010DA2000050
:010DA300004F
:010DA400004E
:010DA500004D
:010DA600004C
:010DA700004B
:010DA800004A
:010DA9000049
:010DAA000048
:010DAB000047
:010DAC000046
:010DAD000045
:010DAE000044
:010DAF000043
:010DB0000042
:010DB1000041
:010DB2000040
:010DB300003F
:010DB400003E
:010DB500003D
:010DB600003C
:010DB700310A
:010DB80063D7
:010DB9009C9D
:010DBA00CD6B
:010DBB00EB4C
:010DBC00FF37
:010DBD00FF36
:010DBE00FF35
:010DBF00FF34
:010DC000FF33
:010DC100FF32
:010DC200FF31
:010DC300FF30
:010DC400FF2F
:010DC500FF2E
:010DC600FF2D
:010DC700FF2C
:010DC800FF2B
:010DC900FF2A
:010DCA00FF29
:010DCB00FF28
:010DCC00FF27
:010DCD00FF26
:010DCE00FF25
:010DCF00FF24
:010DD000FF23
:010DD100FF22
:010DD200FF21
:010DD300FF20
:010DD400FF1F
:010DD500FF1E
:010DD600FF1D
:010DD700FF1C
:010DD800FF1B
:010DD900FF1A
:010DDA00FF19
:010DDB00FF18
:010DDC00FF17
:010DDD00FF16
:010DDE00FF15
:010DDF00FF14
:010DE000FF13
:010DE100FF12
:010DE200FF11
:010DE300FF10
:010DE400FF0F
:010DE500FF0E
:010DE600FF0D
:010DE700FF0C
:010DE800FF0B
:010DE900FF0A
:010DEA00FF09
:010DEB00FF08
:010DEC00FF07
:010DED00FF06
:010DEE00FF05
:010DEF00FF04
:010DF000FF03
:010DF100FF02
:010DF200FF01
:010DF300FF00
:010DF400FFFF
:010DF500FFFE
:010DF600FFFD
:010DF700FFFC
:010DF800FFFB
:010DF900FFFA
:010DFA00FFF9
:010DFB00FFF8
:010DFC00FFF7
:010DFD00FFF6
:010DFE00FFF5
:010DFF00FFF4
:010E0000FFF2
:010E0100FFF1
:010E0200FFF0
:010E0300FFEF
:010E0400FFEE
:010E0500FFED
:010E0600FFEC
:010E0700FFEB
:010E0800FFEA
:010E0900FFE9
:010E0A00FFE8
:010E0B00FFE7
:010E0C00FFE6
:010E0D00FFE5
:010E0E00FFE4
:010E0F00FFE3
:010E1000FFE2
:010E1100FFE1
:010E1200FFE0
:010E1300FFDF
:010E1400FFDE
:010E1500FFDD
:010E1600FFDC
:010E1700FFDB
:010E1800FFDA
:010E1900FFD9
:010E1A00FFD8
:010E1B00FFD7
:010E1C00FFD6
:010E1D00FFD5
:010E1E00FFD4
:010E1F00FFD3
:010E2000FFD2
:010E2100FFD1
:010E2200FFD0
:010E2300FFCF
:010E2400FFCE
:010E2500FFCD
:010E2600FFCC
:010E2700FFCB
:010E2800FFCA
:010E2900FFC9
:010E2A00FFC8
:010E2B00FFC7
:010E2C00FFC6
:010E2D00FFC5
:010E2E00FFC4
:010E2F00FFC3
:010E3000FFC2
:010E3100FFC1
:010E3200FFC0
:010E3300FFBF
:010E3400FFBE
:010E3500FFBD
:010E3600FFBC
:010E3700FFBB
:010E3800FFBA
:010E3900FFB9
:010E3A00FFB8
:010E3B00FFB7
:010E3C00FFB6
:010E3D00FFB5
:010E3E00FFB4
:010E3F00FFB3
:010E4000FFB2
:010E4100FDB3
:010E4200EFC0
:010E4300D9D5
:010E44009815
:010E4500604C
:010E46002F7C
:010E470000AA
:010E480000A9
:010E490000A8
:010E4A0000A7
:010E4B0000A6
:010E4C0000A5
:010E4D0000A4
:010E4E0000A3
:010E4F0000A2
:010E500000A1
:010E510000A0
:010E5200009F
:010E5300009E
:010E5400009D
:010E5500009C
:010E5600009B
:010E5700009A
:010E58000099
:010E59000098
:010E5A000097
:010E5B000096
:010E5C000095
:010E5D000094
:010E5E000093
:010E5F001280
:010E60002869
:010E61004848
:010E6200632C
:010E630090FE
:010E6400A8E5
:010E6500B8D4
:010E6600C5C6
:010E6700CEBC
:010E6800D5B4
:010E6900DBAD
:010E6A00E2A5
:010E6B00E2A4
:010E6C00E2A3
:010E6D00E2A2
:010E6E00E1A2
:010E6F00E0A2
:010E7000E0A1
:010E7100E0A0
:010E7200E09F
:010E7300E09E
:010E7400E09D
:010E7500E09C
:010E7600E09B
:010E7700E09A
:010E7800E099
:010E7900E098
:010E7A00E097
:010E7B00E096
:010E7C00E095
:010E7D00E094
:010E7E00E093
:010E7F00E092
:010E8000E091
:010E8100E090
:010E8200E08F
:010E8300E08E
:010E8400E08D
:010E8500E08C
:010E8600E08B
:010E8700E08A
:010E8800E089
:010E8900E088
:010E8A00E087
:010E8B00E086
:010E8C00E085
:010E8D00E084
:010E8E00E083
:010E8F00E082
:010E9000E081
:010E9100E17F
:010E9200E27D
:010E9300E27C
:010E9400E27B
:010E9500E27A
:010E9600DB80
:010E9700D585
:010E9800CE8B
:010E9900C593
:010E9A00B89F
:010E9B00A8AE
:010E9C0090C5
:010E9D0063F1
:010E9E00480B
:010E9F00282A
:010EA0001140
:010EA1000050
:010EA200004F
:010EA300004E
:010EA400004D
:010EA500004C
:010EA600004B
:010EA700004A
:010EA8000049
:010EA9000048
:010EAA000047
:010EAB000046
:010EAC000045
:010EAD000044
:010EAE000043
:010EAF000042
:010EB0000041
:010EB1000040
:010EB200003F
:010EB300003E
:010EB400003D
:010EB500003C
:010EB600003B
:010EB700003A
:010EB8000039
:010EB9002F09
:010EBA0060D7
:010EBB00989E
:010EBC00DA5B
:010EBD00F143
:010EBE00FE35
:010EBF00FF33
:010EC000FF32
:010EC100FF31
:010EC200FF30
:010EC300FF2F
:010EC400FF2E
:010EC500FF2D
:010EC600FF2C
:010EC700FF2B
:010EC800FF2A
:010EC900FF29
:010ECA00FF28
:010ECB00FF27
:010ECC00FF26
:010ECD00FF25
:010ECE00FF24
:010ECF00FF23
:010ED000FF22
:010ED100FF21
:010ED200FF20
:010ED300FF1F
:010ED400FF1E
:010ED500FF1D
:010ED600FF1C
:010ED700FF1B
:010ED800FF1A
:010ED900FF19
:010EDA00FF18
:010EDB00FF17
:010EDC00FF16
:010EDD00FF15
:010EDE00FF14
:010EDF00FF13
:010EE000FF12
:010EE100FF11
:010EE200FF10
:010EE300FF0F
:010EE400FF0E
:010EE500FF0D
:010EE600FF0C
:010EE700FF0B
:010EE800FF0A
:010EE900FF09
:010EEA00FF08
:010EEB00FF07
:010EEC00FF06
:010EED00FF05
:010EEE00FF04
:010EEF00FF03
:010EF000FF02
:010EF100FF01
:010EF200FF00
:010EF300FFFF
:010EF400FFFE
:010EF500FFFD
:010EF600FFFC
:010EF700FFFB
:010EF800FFFA
:010EF900FFF9
:010EFA00FFF8
:010EFB00FFF7
:010EFC00FFF6
:010EFD00FFF5
:010EFE00FFF4
:010EFF00FFF3
:010F0000FFF1
:010F0100FFF0
:010F0200FFEF
:010F0300FFEE
:010F0400FFED
:010F0500FFEC
:010F0600FFEB
:010F0700FFEA
:010F0800FFE9
:010F0900FFE8
:010F0A00FFE7
:010F0B00FFE6
:010F0C00FFE5
:010F0D00FFE4
:010F0E00FFE3
:010F0F00FFE2
:010F1000FFE1
:010F1100FFE0
:010F1200FFDF
:010F1300FFDE
:010F1400FFDD
:010F1500FFDC
:010F1600FFDB
:010F1700FFDA
:010F1800FFD9
:010F1900FFD8
:010F1A00FFD7
:010F1B00FFD6
:010F1C00FFD5
:010F1D00FFD4
:010F1E00FFD3
:010F1F00FFD2
:010F2000FFD1
:010F2100FFD0
:010F2200FFCF
:010F2300FFCE
:010F2400FFCD
:010F2500FFCC
:010F2600FFCB
:010F2700FFCA
:010F2800FFC9
:010F2900FFC8
:010F2A00FFC7
:010F2B00FFC6
:010F2C00FFC5
:010F2D00FFC4
:010F2E00FFC3
:010F2F00FFC2
:010F3000FFC1
:010F3100FFC0
:010F3200FFBF
:010F3300FFBE
:010F3400FFBD
:010F3500FFBC
:010F3600FFBB
:010F3700FFBA
:010F3800FFB9
:010F3900FFB8
:010F3A00FFB7
:010F3B00FFB6
:010F3C00FFB5
:010F3D00FFB4
:010F3E00FFB3
:010F3F00FDB4
:010F4000F4BC
:010F4100E1CE
:010F42009C12
:010F43005D50
:010F44002488
:010F450000AB
:010F460000AA
:010F470000A9
:010F480000A8
:010F490000A7
:010F4A0000A6
:010F4B0000A5
:010F4C0000A4
:010F4D0000A3
:010F4E0000A2
:010F4F0000A1
:010F500000A0
:010F5100009F
:010F5200009E
:010F5300009D
:010F5400009C
:010F5500009B
:010F5600009A
:010F57000099
:010F58000098
:010F59000097
:010F5A000096
:010F5B000095
:010F5C001282
:010F5D00187B
:010F5E00365C
:010F5F006A27
:010F60009BF5
:010F6100B8D7
:010F6200C4CA
:010F6300D6B7
:010F6400DEAE
:010F6500E0AB
:010F6600E0AA
:010F6700E0A9
:010F6800E0A8
:010F6900E0A7
:010F6A00E0A6
:010F6B00E0A5
:010F6C00E0A4
:010F6D00E0A3
:010F6E00E0A2
:010F6F00E0A1
:010F7000E0A0
:010F7100E09F
:010F7200E09E
:010F7300E09D
:010F7400E09C
:010F7500E09B
:010F7600E09A
:010F7700E099
:010F7800E098
:010F7900E097
:010F7A00E096
:010F7B00E095
:010F7C00E094
:010F7D00E093
:010F7E00E092
:010F7F00E091
:010F8000E090
:010F8100E08F
:010F8200E08E
:010F8300E08D
:010F8400E08C
:010F8500E08B
:010F8600E08A
:010F8700E089
:010F8800E088
:010F8900E087
:010F8A00E086
:010F8B00E085
:010F8C00E084
:010F8D00E083
:010F8E00E082
:010F8F00E081
:010F9000E080
:010F9100E07F
:010F9200E07E
:010F9300E07D
:010F9400E07C
:010F9500E07B
:010F9600E07A
:010F9700E079
:010F9800E078
:010F9900E077
:010F9A00E076
:010F9B00DE77
:010F9C00D480
:010F9D00C48F
:010F9E00B89A
:010F9F009AB7
:010FA00069E7
:010FA1003619
:010FA2001836
:010FA300123B
:010FA400004C
:010FA500004B
:010FA600004A
:010FA7000049
:010FA8000048
:010FA9000047
:010FAA000046
:010FAB000045
:010FAC000044
:010FAD000043
:010FAE000042
:010FAF000041
:010FB0000040
:010FB100003F
:010FB200003E
:010FB300003D
:010FB400003C
:010FB500003B
:010FB600003A
:010FB7000039
:010FB8000038
:010FB9000037
:010FBA000036
:010FBB002411
:010FBC005ED6
:010FBD00A390
:010FBE00E250
:010FBF00F43D
:010FC000FD33
:010FC100FF30
:010FC200FF2F
:010FC300FF2E
:010FC400FF2D
:010FC500FF2C
:010FC600FF2B
:010FC700FF2A
:010FC800FF29
:010FC900FF28
:010FCA00FF27
:010FCB00FF26
:010FCC00FF25
:010FCD00FF24
:010FCE00FF23
:010FCF00FF22
:010FD000FF21
:010FD100FF20
:010FD200FF1F
:010FD300FF1E
:010FD400FF1D
:010FD500FF1C
:010FD600FF1B
:010FD700FF1A
:010FD800FF19
:010FD900FF18
:010FDA00FF17
:010FDB00FF16
:010FDC00FF15
:010FDD00FF14
:010FDE00FF13
:010FDF00FF12
:010FE000FF11
:010FE100FF10
:010FE200FF0F
:010FE300FF0E
:010FE400FF0D
:010FE500FF0C
:010FE600FF0B
:010FE700FF0A
:010FE800FF09
:010FE900FF08
:010FEA00FF07
:010FEB00FF06
:010FEC00FF05
:010FED00FF04
:010FEE00FF03
:010FEF00FF02
:010FF000FF01
:010FF100FF00
:010FF200FFFF
:010FF300FFFE
:010FF400FFFD
:010FF500FFFC
:010FF600FFFB
:010FF700FFFA
:010FF800FFF9
:010FF900FFF8
:010FFA00FFF7
:010FFB00FFF6
:010FFC00FFF5
:010FFD00FFF4
:010FFE00FFF3
:010FFF00FFF2
:01100000FFF0
:01100100FFEF
:01100200FFEE
:01100300FFED
:01100400FFEC
:01100500FFEB
:01100600FFEA
:01100700FFE9
:01100800FFE8
:01100900FFE7
:01100A00FFE6
:01100B00FFE5
:01100C00FFE4
:01100D00FFE3
:01100E00FFE2
:01100F00FFE1
:01101000FFE0
:01101100FFDF
:01101200FFDE
:01101300FFDD
:01101400FFDC
:01101500FFDB
:01101600FFDA
:01101700FFD9
:01101800FFD8
:01101900FFD7
:01101A00FFD6
:01101B00FFD5
:01101C00FFD4
:01101D00FFD3
:01101E00FFD2
:01101F00FFD1
:01102000FFD0
:01102100FFCF
:01102200FFCE
:01102300FFCD
:01102400FFCC
:01102500FFCB
:01102600FFCA
:01102700FFC9
:01102800FFC8
:01102900FFC7
:01102A00FFC6
:01102B00FFC5
:01102C00FFC4
:01102D00FFC3
:01102E00FFC2
:01102F00FFC1
:01103000FFC0
:01103100FFBF
:01103200FFBE
:01103300FFBD
:01103400FFBC
:01103500FFBB
:01103600FFBA
:01103700FFB9
:01103800FFB8
:01103900FFB7
:01103A00FFB6
:01103B00FFB5
:01103C00FFB4
:01103D00FFB3
:01103E00FEB3
:01103F00E5CB
:01104000A10E
:01104100535B
:01104200109D
:0110430000AC
:0110440000AB
:0110450000AA
:0110460000A9
:0110470000A8
:0110480000A7
:0110490000A6
:01104A0000A5
:01104B0000A4
:01104C0000A3
:01104D0000A2
:01104E0000A1
:01104F0000A0
:01105000009F
:01105100009E
:01105200009D
:01105300009C
:01105400009B
:01105500009A
:011056000099
:011057000098
:011058000097
:011059001C7A
:01105A004451
:01105B006430
:01105C008A09
:01105D00B9D9
:01105E00D4BD
:01105F00DAB6
:01106000DBB4
:01106100DDB1
:01106200DEAF
:01106300DFAD
:01106400E0AB
:01106500E0AA
:01106600E0A9
:01106700E0A8
:01106800E0A7
:01106900E0A6
:01106A00E0A5
:01106B00E0A4
:01106C00E0A3
:01106D00E0A2
:01106E00E0A1
:01106F00E0A0
:01107000E09F
:01107100E09E
:01107200E09D
:01107300E09C
:01107400E09B
:01107500E09A
:01107600E099
:01107700E098
:01107800E097
:01107900E096
:01107A00E095
:01107B00E094
:01107C00E093
:01107D00E092
:01107E00E091
:01107F00E090
:01108000E08F
:01108100E08E
:01108200E08D
:01108300E08C
:01108400E08B
:01108500E08A
:01108600E089
:01108700E088
:01108800E087
:01108900E086
:01108A00E085
:01108B00E084
:01108C00E083
:01108D00E082
:01108E00E081
:01108F00E080
:01109000E07F
:01109100E07E
:01109200E07D
:01109300E07C
:01109400E07B
:01109500E07A
:01109600E079
:01109700E078
:01109800E077
:01109900E076
:01109A00E075
:01109B00E074
:01109C00DF74
:01109D00DE74
:01109E00DD74
:01109F00DB75
:0110A000DA75
:0110A100D47A
:0110A200B994
:0110A3008AC2
:0110A40064E7
:0110A5004406
:0110A6001237
:0110A7000048
:0110A8000047
:0110A9000046
:0110AA000045
:0110AB000044
:0110AC000043
:0110AD000042
:0110AE000041
:0110AF000040
:0110B000003F
:0110B100003E
:0110B200003D
:0110B300003C
:0110B400003B
:0110B500003A
:0110B6000039
:0110B7000038
:0110B8000037
:0110B9000036
:0110BA000035
:0110BB000034
:0110BC000033
:0110BD001022
:0110BE0053DE
:0110BF00A18F
:0110C000E54A
:0110C100FE30
:0110C200FF2E
:0110C300FF2D
:0110C400FF2C
:0110C500FF2B
:0110C600FF2A
:0110C700FF29
:0110C800FF28
:0110C900FF27
:0110CA00FF26
:0110CB00FF25
:0110CC00FF24
:0110CD00FF23
:0110CE00FF22
:0110CF00FF21
:0110D000FF20
:0110D100FF1F
:0110D200FF1E
:0110D300FF1D
:0110D400FF1C
:0110D500FF1B
:0110D600FF1A
:0110D700FF19
:0110D800FF18
:0110D900FF17
:0110DA00FF16
:0110DB00FF15
:0110DC00FF14
:0110DD00FF13
:0110DE00FF12
:0110DF00FF11
:0110E000FF10
:0110E100FF0F
:0110E200FF0E
:0110E300FF0D
:0110E400FF0C
:0110E500FF0B
:0110E600FF0A
:0110E700FF09
:0110E800FF08
:0110E900FF07
:0110EA00FF06
:0110EB00FF05
:0110EC00FF04
:0110ED00FF03
:0110EE00FF02
:0110EF00FF01
:0110F000FF00
:0110F100FFFF
:0110F200FFFE
:0110F300FFFD
:0110F400FFFC
:0110F500FFFB
:0110F600FFFA
:0110F700FFF9
:0110F800FFF8
:0110F900FFF7
:0110FA00FFF6
:0110FB00FFF5
:0110FC00FFF4
:0110FD00FFF3
:0110FE00FFF2
:0110FF00FFF1
:01110000FFEF
:01110100FFEE
:01110200FFED
:01110300FFEC
:01110400FFEB
:01110500FFEA
:01110600FFE9
:01110700FFE8
:01110800FFE7
:01110900FFE6
:01110A00FFE5
:01110B00FFE4
:01110C00FFE3
:01110D00FFE2
:01110E00FFE1
:01110F00FFE0
:01111000FFDF
:01111100FFDE
:01111200FFDD
:01111300FFDC
:01111400FFDB
:01111500FFDA
:01111600FFD9
:01111700FFD8
:01111800FFD7
:01111900FFD6
:01111A00FFD5
:01111B00FFD4
:01111C00FFD3
:01111D00FFD2
:01111E00FFD1
:01111F00FFD0
:01112000FFCF
:01112100FFCE
:01112200FFCD
:01112300FFCC
:01112400FFCB
:01112500FFCA
:01112600FFC9
:01112700FFC8
:01112800FFC7
:01112900FFC6
:01112A00FFC5
:01112B00FFC4
:01112C00FFC3
:01112D00FFC2
:01112E00FFC1
:01112F00FFC0
:01113000FFBF
:01113100FFBE
:01113200FFBD
:01113300FFBC
:01113400FFBB
:01113500FFBA
:01113600FFB9
:01113700FFB8
:01113800FFB7
:01113900FFB6
:01113A00FFB5
:01113B00FFB4
:01113C00FEB4
:01113D00FBB6
:01113E00D5DB
:01113F007E31
:011140002589
:0111410000AD
:0111420000AC
:0111430000AB
:0111440000AA
:0111450000A9
:0111460000A8
:0111470000A7
:0111480000A6
:0111490000A5
:01114A0000A4
:01114B0000A3
:01114C0000A2
:01114D0000A1
:01114E0000A0
:01114F00009F
:01115000009E
:01115100009D
:01115200009C
:01115300009B
:01115400009A
:011155000099
:011156001E7A
:011157003F58
:011158006630
:011159008D08
:01115A00AFE5
:01115B00C7CC
:01115C00D6BC
:01115D00DFB2
:01115E00E1AF
:01115F00E1AE
:01116000E0AE
:01116100E0AD
:01116200E0AC
:01116300E0AB
:01116400E0AA
:01116500E0A9
:01116600E0A8
:01116700E0A7
:01116800E0A6
:01116900E0A5
:01116A00E0A4
:01116B00E0A3
:01116C00E0A2
:01116D00E0A1
:01116E00E0A0
:01116F00E09F
:01117000E09E
:01117100E09D
:01117200E09C
:01117300E09B
:01117400E09A
:01117500E099
:01117600E098
:01117700E097
:01117800E096
:01117900E095
:01117A00E094
:01117B00E093
:01117C00E092
:01117D00E091
:01117E00E090
:01117F00E08F
:01118000E08E
:01118100E08D
:01118200E08C
:01118300E08B
:01118400E08A
:01118500E089
:01118600E088
:01118700E087
:01118800E086
:01118900E085
:01118A00E084
:01118B00E083
:01118C00E082
:01118D00E081
:01118E00E080
:01118F00E07F
:01119000E07E
:01119100E07D
:01119200E07C
:01119300E07B
:01119400E07A
:01119500E079
:01119600E078
:01119700E077
:01119800E076
:01119900E075
:01119A00E074
:01119B00E073
:01119C00E072
:01119D00E071
:01119E00E070
:01119F00E06F
:0111A000E16D
:0111A100E16C
:0111A200DF6D
:0111A300D675
:0111A400C783
:0111A500AF9A
:0111A6008BBD
:0111A70066E1
:0111A8004006
:0111A9001E27
:0111AA000044
:0111AB000043
:0111AC000042
:0111AD000041
:0111AE000040
:0111AF00003F
:0111B000003E
:0111B100003D
:0111B200003C
:0111B300003B
:0111B400003A
:0111B5000039
:0111B6000038
:0111B7000037
:0111B8000036
:0111B9000035
:0111BA000034
:0111BB000033
:0111BC000032
:0111BD000031
:0111BE000030
:0111BF00220D
:0111C0007DB1
:0111C100D558
:0111C200FB31
:0111C300FE2D
:0111C400FF2B
:0111C500FF2A
:0111C600FF29
:0111C700FF28
:0111C800FF27
:0111C900FF26
:0111CA00FF25
:0111CB00FF24
:0111CC00FF23
:0111CD00FF22
:0111CE00FF21
:0111CF00FF20
:0111D000FF1F
:0111D100FF1E
:0111D200FF1D
:0111D300FF1C
:0111D400FF1B
:0111D500FF1A
:0111D600FF19
:0111D700FF18
:0111D800FF17
:0111D900FF16
:0111DA00FF15
